{
  "_format": "hh-sol-artifact-1",
  "contractName": "PixleU",
  "sourceName": "contracts/PixleU.sol",
  "abi": [
    {
      "anonymous": false,
      "inputs": [
        {
          "indexed": true,
          "internalType": "address",
          "name": "_owner",
          "type": "address"
        },
        {
          "indexed": true,
          "internalType": "address",
          "name": "_approved",
          "type": "address"
        },
        {
          "indexed": true,
          "internalType": "uint256",
          "name": "_tokenId",
          "type": "uint256"
        }
      ],
      "name": "Approval",
      "type": "event"
    },
    {
      "anonymous": false,
      "inputs": [
        {
          "indexed": true,
          "internalType": "address",
          "name": "_from",
          "type": "address"
        },
        {
          "indexed": true,
          "internalType": "address",
          "name": "_to",
          "type": "address"
        },
        {
          "indexed": true,
          "internalType": "uint256",
          "name": "_tokenId",
          "type": "uint256"
        }
      ],
      "name": "Transfer",
      "type": "event"
    },
    {
      "inputs": [
        {
          "internalType": "address",
          "name": "_owner",
          "type": "address"
        }
      ],
      "name": "balanceOf",
      "outputs": [
        {
          "internalType": "uint256",
          "name": "",
          "type": "uint256"
        }
      ],
      "stateMutability": "view",
      "type": "function"
    },
    {
      "inputs": [
        {
          "internalType": "string",
          "name": "_pixleU",
          "type": "string"
        }
      ],
      "name": "mint",
      "outputs": [],
      "stateMutability": "nonpayable",
      "type": "function"
    },
    {
      "inputs": [],
      "name": "owner",
      "outputs": [
        {
          "internalType": "address",
          "name": "",
          "type": "address"
        }
      ],
      "stateMutability": "view",
      "type": "function"
    },
    {
      "inputs": [
        {
          "internalType": "uint256",
          "name": "_tokenId",
          "type": "uint256"
        }
      ],
      "name": "ownerOf",
      "outputs": [
        {
          "internalType": "address",
          "name": "",
          "type": "address"
        }
      ],
      "stateMutability": "view",
      "type": "function"
    },
    {
      "inputs": [
        {
          "internalType": "uint256",
          "name": "",
          "type": "uint256"
        }
      ],
      "name": "pixleUz",
      "outputs": [
        {
          "internalType": "string",
          "name": "",
          "type": "string"
        }
      ],
      "stateMutability": "view",
      "type": "function"
    },
    {
      "inputs": [
        {
          "internalType": "bytes4",
          "name": "interfaceID",
          "type": "bytes4"
        }
      ],
      "name": "supportsInterface",
      "outputs": [
        {
          "internalType": "bool",
          "name": "",
          "type": "bool"
        }
      ],
      "stateMutability": "view",
      "type": "function"
    },
    {
      "inputs": [
        {
          "internalType": "uint256",
          "name": "index",
          "type": "uint256"
        }
      ],
      "name": "tokenByIndex",
      "outputs": [
        {
          "internalType": "uint256",
          "name": "",
          "type": "uint256"
        }
      ],
      "stateMutability": "view",
      "type": "function"
    },
    {
      "inputs": [
        {
          "internalType": "address",
          "name": "owner",
          "type": "address"
        },
        {
          "internalType": "uint256",
          "name": "index",
          "type": "uint256"
        }
      ],
      "name": "tokenOfOwnerByIndex",
      "outputs": [
        {
          "internalType": "uint256",
          "name": "",
          "type": "uint256"
        }
      ],
      "stateMutability": "view",
      "type": "function"
    },
    {
      "inputs": [],
      "name": "totalSupply",
      "outputs": [
        {
          "internalType": "uint256",
          "name": "",
          "type": "uint256"
        }
      ],
      "stateMutability": "view",
      "type": "function"
    },
    {
      "inputs": [
        {
          "internalType": "address",
          "name": "_from",
          "type": "address"
        },
        {
          "internalType": "address",
          "name": "_to",
          "type": "address"
        },
        {
          "internalType": "uint256",
          "name": "_tokenId",
          "type": "uint256"
        }
      ],
      "name": "transferFrom",
      "outputs": [],
      "stateMutability": "nonpayable",
      "type": "function"
    }
  ],
  "bytecode": "0x608060405233600960006101000a81548173ffffffffffffffffffffffffffffffffffffffff021916908373ffffffffffffffffffffffffffffffffffffffff1602179055503480156200005257600080fd5b50620000847f01ffc9a7a5cef8baa21ed3c5c0d7e23accb804b619e9333b597f47a0d84076e26200017460201b60201c565b620000f97f22c82707ba960a14c7592ffb6b8cfaa073fed0048a84cc7fa41f6b5bd8e7f2e47f3a6eb71757dfc6e784c1459d26270140c2c147d95ca985c80026fc5301c3eca17f8a7e378434598edc36d108689a030cbc9d7d465de4f74c71bae1028eed6a881b18186200017460201b60201c565b6200016e7f8230223f691b981717299fae9549350a0d894555723531f02108b1f522c1a7977f6da5e1284143cdd2d15038a59bde3be031250f00291d64494c12d967b3a4e0c37fc53637662700e6c65104059db8bba34439e0c32483ab7c34e3ccae52c739549518186200017460201b60201c565b620002cf565b63ffffffff60e01b817bffffffffffffffffffffffffffffffffffffffffffffffffffffffff19161415620001e0576040517f08c379a0000000000000000000000000000000000000000000000000000000008152600401620001d79062000273565b60405180910390fd5b6001600080837bffffffffffffffffffffffffffffffffffffffffffffffffffffffff19167bffffffffffffffffffffffffffffffffffffffffffffffffffffffff1916815260200190815260200160002060006101000a81548160ff02191690831515021790555050565b60006200025b60198362000295565b91506200026882620002a6565b602082019050919050565b600060208201905081810360008301526200028e816200024c565b9050919050565b600082825260208201905092915050565b7f496e76616c696420696e74657266616365207265717565737400000000000000600082015250565b611b2e80620002df6000396000f3fe608060405234801561001057600080fd5b506004361061009e5760003560e01c80636352211e116100665780636352211e1461016d57806370a082311461019d5780638da5cb5b146101cd578063a92e1e8d146101eb578063d85d3d271461021b5761009e565b806301ffc9a7146100a357806318160ddd146100d357806323b872dd146100f15780632f745c591461010d5780634f6ccce71461013d575b600080fd5b6100bd60048036038101906100b8919061112b565b610237565b6040516100ca9190611408565b60405180910390f35b6100db61029e565b6040516100e891906115a5565b60405180910390f35b61010b600480360381019061010691906110a0565b6102ab565b005b610127600480360381019061012291906110ef565b6102ce565b60405161013491906115a5565b60405180910390f35b61015760048036038101906101529190611195565b6103a4565b60405161016491906115a5565b60405180910390f35b61018760048036038101906101829190611195565b61043b565b60405161019491906113ed565b60405180910390f35b6101b760048036038101906101b29190611077565b6104ed565b6040516101c491906115a5565b60405180910390f35b6101d56105ac565b6040516101e291906113ed565b60405180910390f35b61020560048036038101906102009190611195565b6105d2565b6040516102129190611423565b60405180910390f35b61023560048036038101906102309190611154565b61067e565b005b6000806000837bffffffffffffffffffffffffffffffffffffffffffffffffffffffff19167bffffffffffffffffffffffffffffffffffffffffffffffffffffffff1916815260200190815260200160002060009054906101000a900460ff169050919050565b6000600480549050905090565b6102b533826107b5565b6102be57600080fd5b6102c9838383610844565b505050565b60006102d9836104ed565b821061031a576040517f08c379a0000000000000000000000000000000000000000000000000000000008152600401610311906114a5565b60405180910390fd5b600660008473ffffffffffffffffffffffffffffffffffffffff1673ffffffffffffffffffffffffffffffffffffffff1681526020019081526020016000208281548110610391577f4e487b7100000000000000000000000000000000000000000000000000000000600052603260045260246000fd5b9060005260206000200154905092915050565b60006103ae61029e565b82106103ef576040517f08c379a00000000000000000000000000000000000000000000000000000000081526004016103e690611445565b60405180910390fd5b60048281548110610429577f4e487b7100000000000000000000000000000000000000000000000000000000600052603260045260246000fd5b90600052602060002001549050919050565b6000806001600084815260200190815260200160002060009054906101000a900473ffffffffffffffffffffffffffffffffffffffff169050600073ffffffffffffffffffffffffffffffffffffffff168173ffffffffffffffffffffffffffffffffffffffff1614156104e4576040517f08c379a00000000000000000000000000000000000000000000000000000000081526004016104db90611565565b60405180910390fd5b80915050919050565b60008073ffffffffffffffffffffffffffffffffffffffff168273ffffffffffffffffffffffffffffffffffffffff16141561055e576040517f08c379a000000000000000000000000000000000000000000000000000000000815260040161055590611585565b60405180910390fd5b6105a5600260008473ffffffffffffffffffffffffffffffffffffffff1673ffffffffffffffffffffffffffffffffffffffff168152602001908152602001600020610a6a565b9050919050565b600960009054906101000a900473ffffffffffffffffffffffffffffffffffffffff1681565b600881815481106105e257600080fd5b9060005260206000200160009150905080546105fd9061177d565b80601f01602080910402602001604051908101604052809291908181526020018280546106299061177d565b80156106765780601f1061064b57610100808354040283529160200191610676565b820191906000526020600020905b81548152906001019060200180831161065957829003601f168201915b505050505081565b600a8160405161068e91906113d6565b908152602001604051809103902060009054906101000a900460ff16156106ea576040517f08c379a00000000000000000000000000000000000000000000000000000000081526004016106e190611505565b60405180910390fd5b600881908060018154018082558091505060019003906000526020600020016000909190919091509080519060200190610725929190610f2d565b506000600160088054905061073a9190611693565b90506107463382610a78565b610771600960009054906101000a900473ffffffffffffffffffffffffffffffffffffffff16610a99565b61077a33610a99565b6001600a8360405161078c91906113d6565b908152602001604051809103902060006101000a81548160ff0219169083151502179055505050565b60006107c082610b32565b6107ff576040517f08c379a00000000000000000000000000000000000000000000000000000000081526004016107f690611465565b60405180910390fd5b600061080a8361043b565b90508073ffffffffffffffffffffffffffffffffffffffff168473ffffffffffffffffffffffffffffffffffffffff161491505092915050565b600073ffffffffffffffffffffffffffffffffffffffff168273ffffffffffffffffffffffffffffffffffffffff1614156108b4576040517f08c379a00000000000000000000000000000000000000000000000000000000081526004016108ab906114c5565b60405180910390fd5b8273ffffffffffffffffffffffffffffffffffffffff166108d48261043b565b73ffffffffffffffffffffffffffffffffffffffff161461092a576040517f08c379a000000000000000000000000000000000000000000000000000000000815260040161092190611545565b60405180910390fd5b610971600260008573ffffffffffffffffffffffffffffffffffffffff1673ffffffffffffffffffffffffffffffffffffffff168152602001908152602001600020610ba4565b6109b8600260008473ffffffffffffffffffffffffffffffffffffffff1673ffffffffffffffffffffffffffffffffffffffff168152602001908152602001600020610bc7565b816001600083815260200190815260200160002060006101000a81548173ffffffffffffffffffffffffffffffffffffffff021916908373ffffffffffffffffffffffffffffffffffffffff160217905550808273ffffffffffffffffffffffffffffffffffffffff168473ffffffffffffffffffffffffffffffffffffffff167fddf252ad1be2c89b69c2b068fc378daa952ba7f163c4a11628f55a4df523b3ef60405160405180910390a4505050565b600081600001549050919050565b610a828282610be6565b610a8b81610d98565b610a958282610de1565b5050565b610b2f81604051602401610aad91906113ed565b6040516020818303038152906040527f2c2ecbc2000000000000000000000000000000000000000000000000000000007bffffffffffffffffffffffffffffffffffffffffffffffffffffffff19166020820180517bffffffffffffffffffffffffffffffffffffffffffffffffffffffff8381831617835250505050610ea5565b50565b6000806001600084815260200190815260200160002060009054906101000a900473ffffffffffffffffffffffffffffffffffffffff169050600073ffffffffffffffffffffffffffffffffffffffff168173ffffffffffffffffffffffffffffffffffffffff161415915050919050565b610bbc60018260000154610ece90919063ffffffff16565b816000018190555050565b6001816000016000828254610bdc919061163d565b9250508190555050565b600073ffffffffffffffffffffffffffffffffffffffff168273ffffffffffffffffffffffffffffffffffffffff161415610c56576040517f08c379a0000000000000000000000000000000000000000000000000000000008152600401610c4d90611485565b60405180910390fd5b610c5f81610b32565b15610c9f576040517f08c379a0000000000000000000000000000000000000000000000000000000008152600401610c9690611525565b60405180910390fd5b816001600083815260200190815260200160002060006101000a81548173ffffffffffffffffffffffffffffffffffffffff021916908373ffffffffffffffffffffffffffffffffffffffff160217905550610d38600260008473ffffffffffffffffffffffffffffffffffffffff1673ffffffffffffffffffffffffffffffffffffffff168152602001908152602001600020610bc7565b808273ffffffffffffffffffffffffffffffffffffffff16600073ffffffffffffffffffffffffffffffffffffffff167fddf252ad1be2c89b69c2b068fc378daa952ba7f163c4a11628f55a4df523b3ef60405160405180910390a45050565b6004805490506005600083815260200190815260200160002081905550600481908060018154018082558091505060019003906000526020600020016000909190919091505550565b600660008373ffffffffffffffffffffffffffffffffffffffff1673ffffffffffffffffffffffffffffffffffffffff168152602001908152602001600020805490506007600083815260200190815260200160002081905550600660008373ffffffffffffffffffffffffffffffffffffffff1673ffffffffffffffffffffffffffffffffffffffff1681526020019081526020016000208190806001815401808255809150506001900390600052602060002001600090919091909150555050565b60008151905060006a636f6e736f6c652e6c6f679050602083016000808483855afa5050505050565b600082821115610f13576040517f08c379a0000000000000000000000000000000000000000000000000000000008152600401610f0a906114e5565b60405180910390fd5b60008284610f219190611693565b90508091505092915050565b828054610f399061177d565b90600052602060002090601f016020900481019282610f5b5760008555610fa2565b82601f10610f7457805160ff1916838001178555610fa2565b82800160010185558215610fa2579182015b82811115610fa1578251825591602001919060010190610f86565b5b509050610faf9190610fb3565b5090565b5b80821115610fcc576000816000905550600101610fb4565b5090565b6000610fe3610fde846115e5565b6115c0565b905082815260208101848484011115610ffb57600080fd5b61100684828561173b565b509392505050565b60008135905061101d81611ab3565b92915050565b60008135905061103281611aca565b92915050565b600082601f83011261104957600080fd5b8135611059848260208601610fd0565b91505092915050565b60008135905061107181611ae1565b92915050565b60006020828403121561108957600080fd5b60006110978482850161100e565b91505092915050565b6000806000606084860312156110b557600080fd5b60006110c38682870161100e565b93505060206110d48682870161100e565b92505060406110e586828701611062565b9150509250925092565b6000806040838503121561110257600080fd5b60006111108582860161100e565b925050602061112185828601611062565b9150509250929050565b60006020828403121561113d57600080fd5b600061114b84828501611023565b91505092915050565b60006020828403121561116657600080fd5b600082013567ffffffffffffffff81111561118057600080fd5b61118c84828501611038565b91505092915050565b6000602082840312156111a757600080fd5b60006111b584828501611062565b91505092915050565b6111c7816116c7565b82525050565b6111d6816116d9565b82525050565b60006111e782611616565b6111f18185611621565b935061120181856020860161174a565b61120a8161186d565b840191505092915050565b600061122082611616565b61122a8185611632565b935061123a81856020860161174a565b80840191505092915050565b6000611253601b83611621565b915061125e8261187e565b602082019050919050565b6000611276601b83611621565b9150611281826118a7565b602082019050919050565b6000611299602383611621565b91506112a4826118d0565b604082019050919050565b60006112bc601a83611621565b91506112c78261191f565b602082019050919050565b60006112df602383611621565b91506112ea82611948565b604082019050919050565b6000611302601e83611621565b915061130d82611997565b602082019050919050565b6000611325601c83611621565b9150611330826119c0565b602082019050919050565b6000611348601f83611621565b9150611353826119e9565b602082019050919050565b600061136b602b83611621565b915061137682611a12565b604082019050919050565b600061138e601983611621565b915061139982611a61565b602082019050919050565b60006113b1601983611621565b91506113bc82611a8a565b602082019050919050565b6113d081611731565b82525050565b60006113e28284611215565b915081905092915050565b600060208201905061140260008301846111be565b92915050565b600060208201905061141d60008301846111cd565b92915050565b6000602082019050818103600083015261143d81846111dc565b905092915050565b6000602082019050818103600083015261145e81611246565b9050919050565b6000602082019050818103600083015261147e81611269565b9050919050565b6000602082019050818103600083015261149e8161128c565b9050919050565b600060208201905081810360008301526114be816112af565b9050919050565b600060208201905081810360008301526114de816112d2565b9050919050565b600060208201905081810360008301526114fe816112f5565b9050919050565b6000602082019050818103600083015261151e81611318565b9050919050565b6000602082019050818103600083015261153e8161133b565b9050919050565b6000602082019050818103600083015261155e8161135e565b9050919050565b6000602082019050818103600083015261157e81611381565b9050919050565b6000602082019050818103600083015261159e816113a4565b9050919050565b60006020820190506115ba60008301846113c7565b92915050565b60006115ca6115db565b90506115d682826117af565b919050565b6000604051905090565b600067ffffffffffffffff821115611600576115ff61183e565b5b6116098261186d565b9050602081019050919050565b600081519050919050565b600082825260208201905092915050565b600081905092915050565b600061164882611731565b915061165383611731565b9250827fffffffffffffffffffffffffffffffffffffffffffffffffffffffffffffffff03821115611688576116876117e0565b5b828201905092915050565b600061169e82611731565b91506116a983611731565b9250828210156116bc576116bb6117e0565b5b828203905092915050565b60006116d282611711565b9050919050565b60008115159050919050565b60007fffffffff0000000000000000000000000000000000000000000000000000000082169050919050565b600073ffffffffffffffffffffffffffffffffffffffff82169050919050565b6000819050919050565b82818337600083830152505050565b60005b8381101561176857808201518184015260208101905061174d565b83811115611777576000848401525b50505050565b6000600282049050600182168061179557607f821691505b602082108114156117a9576117a861180f565b5b50919050565b6117b88261186d565b810181811067ffffffffffffffff821117156117d7576117d661183e565b5b80604052505050565b7f4e487b7100000000000000000000000000000000000000000000000000000000600052601160045260246000fd5b7f4e487b7100000000000000000000000000000000000000000000000000000000600052602260045260246000fd5b7f4e487b7100000000000000000000000000000000000000000000000000000000600052604160045260246000fd5b6000601f19601f8301169050919050565b7f476c6f62616c20696e646578206f7574206f6620626f756e6473210000000000600082015250565b7f4572726f723a20546f6b656e20646f6573206e6f742065786973740000000000600082015250565b7f4552433732313a204d696e74696e6720746f20746865207a65726f206164647260008201527f6573730000000000000000000000000000000000000000000000000000000000602082015250565b7f4f776e657220696e646578206f7574206f6620626f756e647321000000000000600082015250565b7f4572726f723a205472616e7366657220746f20746865207a65726f206164647260008201527f6573730000000000000000000000000000000000000000000000000000000000602082015250565b7f536166654d6174683a207375627472616374696f6e206f766572666c6f770000600082015250565b7f4572726f723a207069786c655520616c72656164792065786973747300000000600082015250565b7f4552433732313a20546f6b656e20697320616c7265616479206d696e74656400600082015250565b7f4572726f723a20547279696e6720746f207472616e73666572206120746f6b6560008201527f6e206e6f74206f776e6564000000000000000000000000000000000000000000602082015250565b7f4572726f723a204e6f6e2d6578697374696e6720546f6b656e00000000000000600082015250565b7f4572726f723a204e6f6e2d6578697374696e67204f776e657200000000000000600082015250565b611abc816116c7565b8114611ac757600080fd5b50565b611ad3816116e5565b8114611ade57600080fd5b50565b611aea81611731565b8114611af557600080fd5b5056fea2646970667358221220170ce2902fc85b365dc6b1437b3415f879e02c72ac4c4cd253455e6310ec80fb64736f6c63430008040033",
  "linkReferences": {},
  "deployedLinkReferences": {}
}