{
  "_format": "hh-sol-artifact-1",
  "contractName": "ERC721Enumerable",
  "sourceName": "contracts/ERC721enumerable.sol",
  "abi": [
    {
      "inputs": [],
      "stateMutability": "nonpayable",
      "type": "constructor"
    },
    {
      "anonymous": false,
      "inputs": [
        {
          "indexed": true,
          "internalType": "address",
          "name": "_owner",
          "type": "address"
        },
        {
          "indexed": true,
          "internalType": "address",
          "name": "_approved",
          "type": "address"
        },
        {
          "indexed": true,
          "internalType": "uint256",
          "name": "_tokenId",
          "type": "uint256"
        }
      ],
      "name": "Approval",
      "type": "event"
    },
    {
      "anonymous": false,
      "inputs": [
        {
          "indexed": true,
          "internalType": "address",
          "name": "_from",
          "type": "address"
        },
        {
          "indexed": true,
          "internalType": "address",
          "name": "_to",
          "type": "address"
        },
        {
          "indexed": true,
          "internalType": "uint256",
          "name": "_tokenId",
          "type": "uint256"
        }
      ],
      "name": "Transfer",
      "type": "event"
    },
    {
      "inputs": [
        {
          "internalType": "address",
          "name": "_owner",
          "type": "address"
        }
      ],
      "name": "balanceOf",
      "outputs": [
        {
          "internalType": "uint256",
          "name": "",
          "type": "uint256"
        }
      ],
      "stateMutability": "view",
      "type": "function"
    },
    {
      "inputs": [
        {
          "internalType": "uint256",
          "name": "_tokenId",
          "type": "uint256"
        }
      ],
      "name": "ownerOf",
      "outputs": [
        {
          "internalType": "address",
          "name": "",
          "type": "address"
        }
      ],
      "stateMutability": "view",
      "type": "function"
    },
    {
      "inputs": [
        {
          "internalType": "bytes4",
          "name": "interfaceID",
          "type": "bytes4"
        }
      ],
      "name": "supportsInterface",
      "outputs": [
        {
          "internalType": "bool",
          "name": "",
          "type": "bool"
        }
      ],
      "stateMutability": "view",
      "type": "function"
    },
    {
      "inputs": [
        {
          "internalType": "uint256",
          "name": "index",
          "type": "uint256"
        }
      ],
      "name": "tokenByIndex",
      "outputs": [
        {
          "internalType": "uint256",
          "name": "",
          "type": "uint256"
        }
      ],
      "stateMutability": "view",
      "type": "function"
    },
    {
      "inputs": [
        {
          "internalType": "address",
          "name": "owner",
          "type": "address"
        },
        {
          "internalType": "uint256",
          "name": "index",
          "type": "uint256"
        }
      ],
      "name": "tokenOfOwnerByIndex",
      "outputs": [
        {
          "internalType": "uint256",
          "name": "",
          "type": "uint256"
        }
      ],
      "stateMutability": "view",
      "type": "function"
    },
    {
      "inputs": [],
      "name": "totalSupply",
      "outputs": [
        {
          "internalType": "uint256",
          "name": "",
          "type": "uint256"
        }
      ],
      "stateMutability": "view",
      "type": "function"
    },
    {
      "inputs": [
        {
          "internalType": "address",
          "name": "_from",
          "type": "address"
        },
        {
          "internalType": "address",
          "name": "_to",
          "type": "address"
        },
        {
          "internalType": "uint256",
          "name": "_tokenId",
          "type": "uint256"
        }
      ],
      "name": "transferFrom",
      "outputs": [],
      "stateMutability": "nonpayable",
      "type": "function"
    }
  ],
  "bytecode": "0x60806040523480156200001157600080fd5b50620000437f01ffc9a7a5cef8baa21ed3c5c0d7e23accb804b619e9333b597f47a0d84076e26200013360201b60201c565b620000b87f22c82707ba960a14c7592ffb6b8cfaa073fed0048a84cc7fa41f6b5bd8e7f2e47f3a6eb71757dfc6e784c1459d26270140c2c147d95ca985c80026fc5301c3eca17f8a7e378434598edc36d108689a030cbc9d7d465de4f74c71bae1028eed6a881b18186200013360201b60201c565b6200012d7f8230223f691b981717299fae9549350a0d894555723531f02108b1f522c1a7977f6da5e1284143cdd2d15038a59bde3be031250f00291d64494c12d967b3a4e0c37fc53637662700e6c65104059db8bba34439e0c32483ab7c34e3ccae52c739549518186200013360201b60201c565b6200028e565b63ffffffff60e01b817bffffffffffffffffffffffffffffffffffffffffffffffffffffffff191614156200019f576040517f08c379a0000000000000000000000000000000000000000000000000000000008152600401620001969062000232565b60405180910390fd5b6001600080837bffffffffffffffffffffffffffffffffffffffffffffffffffffffff19167bffffffffffffffffffffffffffffffffffffffffffffffffffffffff1916815260200190815260200160002060006101000a81548160ff02191690831515021790555050565b60006200021a60198362000254565b9150620002278262000265565b602082019050919050565b600060208201905081810360008301526200024d816200020b565b9050919050565b600082825260208201905092915050565b7f496e76616c696420696e74657266616365207265717565737400000000000000600082015250565b61101f806200029e6000396000f3fe608060405234801561001057600080fd5b506004361061007d5760003560e01c80632f745c591161005b5780632f745c59146100ec5780634f6ccce71461011c5780636352211e1461014c57806370a082311461017c5761007d565b806301ffc9a71461008257806318160ddd146100b257806323b872dd146100d0575b600080fd5b61009c600480360381019061009791906109ea565b6101ac565b6040516100a99190610b9c565b60405180910390f35b6100ba610213565b6040516100c79190610cb7565b60405180910390f35b6100ea60048036038101906100e5919061095f565b610220565b005b610106600480360381019061010191906109ae565b610243565b6040516101139190610cb7565b60405180910390f35b61013660048036038101906101319190610a13565b610319565b6040516101439190610cb7565b60405180910390f35b61016660048036038101906101619190610a13565b6103b0565b6040516101739190610b81565b60405180910390f35b61019660048036038101906101919190610936565b610462565b6040516101a39190610cb7565b60405180910390f35b6000806000837bffffffffffffffffffffffffffffffffffffffffffffffffffffffff19167bffffffffffffffffffffffffffffffffffffffffffffffffffffffff1916815260200190815260200160002060009054906101000a900460ff169050919050565b6000600480549050905090565b61022a3382610521565b61023357600080fd5b61023e8383836105b0565b505050565b600061024e83610462565b821061028f576040517f08c379a000000000000000000000000000000000000000000000000000000000815260040161028690610bf7565b60405180910390fd5b600660008473ffffffffffffffffffffffffffffffffffffffff1673ffffffffffffffffffffffffffffffffffffffff1681526020019081526020016000208281548110610306577f4e487b7100000000000000000000000000000000000000000000000000000000600052603260045260246000fd5b9060005260206000200154905092915050565b6000610323610213565b8210610364576040517f08c379a000000000000000000000000000000000000000000000000000000000815260040161035b90610bb7565b60405180910390fd5b6004828154811061039e577f4e487b7100000000000000000000000000000000000000000000000000000000600052603260045260246000fd5b90600052602060002001549050919050565b6000806001600084815260200190815260200160002060009054906101000a900473ffffffffffffffffffffffffffffffffffffffff169050600073ffffffffffffffffffffffffffffffffffffffff168173ffffffffffffffffffffffffffffffffffffffff161415610459576040517f08c379a000000000000000000000000000000000000000000000000000000000815260040161045090610c77565b60405180910390fd5b80915050919050565b60008073ffffffffffffffffffffffffffffffffffffffff168273ffffffffffffffffffffffffffffffffffffffff1614156104d3576040517f08c379a00000000000000000000000000000000000000000000000000000000081526004016104ca90610c97565b60405180910390fd5b61051a600260008473ffffffffffffffffffffffffffffffffffffffff1673ffffffffffffffffffffffffffffffffffffffff1681526020019081526020016000206107d6565b9050919050565b600061052c826107e4565b61056b576040517f08c379a000000000000000000000000000000000000000000000000000000000815260040161056290610bd7565b60405180910390fd5b6000610576836103b0565b90508073ffffffffffffffffffffffffffffffffffffffff168473ffffffffffffffffffffffffffffffffffffffff161491505092915050565b600073ffffffffffffffffffffffffffffffffffffffff168273ffffffffffffffffffffffffffffffffffffffff161415610620576040517f08c379a000000000000000000000000000000000000000000000000000000000815260040161061790610c17565b60405180910390fd5b8273ffffffffffffffffffffffffffffffffffffffff16610640826103b0565b73ffffffffffffffffffffffffffffffffffffffff1614610696576040517f08c379a000000000000000000000000000000000000000000000000000000000815260040161068d90610c57565b60405180910390fd5b6106dd600260008573ffffffffffffffffffffffffffffffffffffffff1673ffffffffffffffffffffffffffffffffffffffff168152602001908152602001600020610856565b610724600260008473ffffffffffffffffffffffffffffffffffffffff1673ffffffffffffffffffffffffffffffffffffffff168152602001908152602001600020610879565b816001600083815260200190815260200160002060006101000a81548173ffffffffffffffffffffffffffffffffffffffff021916908373ffffffffffffffffffffffffffffffffffffffff160217905550808273ffffffffffffffffffffffffffffffffffffffff168473ffffffffffffffffffffffffffffffffffffffff167fddf252ad1be2c89b69c2b068fc378daa952ba7f163c4a11628f55a4df523b3ef60405160405180910390a4505050565b600081600001549050919050565b6000806001600084815260200190815260200160002060009054906101000a900473ffffffffffffffffffffffffffffffffffffffff169050600073ffffffffffffffffffffffffffffffffffffffff168173ffffffffffffffffffffffffffffffffffffffff161415915050919050565b61086e6001826000015461089890919063ffffffff16565b816000018190555050565b600181600001600082825461088e9190610ce3565b9250508190555050565b6000828211156108dd576040517f08c379a00000000000000000000000000000000000000000000000000000000081526004016108d490610c37565b60405180910390fd5b600082846108eb9190610d39565b90508091505092915050565b60008135905061090681610fa4565b92915050565b60008135905061091b81610fbb565b92915050565b60008135905061093081610fd2565b92915050565b60006020828403121561094857600080fd5b6000610956848285016108f7565b91505092915050565b60008060006060848603121561097457600080fd5b6000610982868287016108f7565b9350506020610993868287016108f7565b92505060406109a486828701610921565b9150509250925092565b600080604083850312156109c157600080fd5b60006109cf858286016108f7565b92505060206109e085828601610921565b9150509250929050565b6000602082840312156109fc57600080fd5b6000610a0a8482850161090c565b91505092915050565b600060208284031215610a2557600080fd5b6000610a3384828501610921565b91505092915050565b610a4581610d6d565b82525050565b610a5481610d7f565b82525050565b6000610a67601b83610cd2565b9150610a7282610e10565b602082019050919050565b6000610a8a601b83610cd2565b9150610a9582610e39565b602082019050919050565b6000610aad601a83610cd2565b9150610ab882610e62565b602082019050919050565b6000610ad0602383610cd2565b9150610adb82610e8b565b604082019050919050565b6000610af3601e83610cd2565b9150610afe82610eda565b602082019050919050565b6000610b16602b83610cd2565b9150610b2182610f03565b604082019050919050565b6000610b39601983610cd2565b9150610b4482610f52565b602082019050919050565b6000610b5c601983610cd2565b9150610b6782610f7b565b602082019050919050565b610b7b81610dd7565b82525050565b6000602082019050610b966000830184610a3c565b92915050565b6000602082019050610bb16000830184610a4b565b92915050565b60006020820190508181036000830152610bd081610a5a565b9050919050565b60006020820190508181036000830152610bf081610a7d565b9050919050565b60006020820190508181036000830152610c1081610aa0565b9050919050565b60006020820190508181036000830152610c3081610ac3565b9050919050565b60006020820190508181036000830152610c5081610ae6565b9050919050565b60006020820190508181036000830152610c7081610b09565b9050919050565b60006020820190508181036000830152610c9081610b2c565b9050919050565b60006020820190508181036000830152610cb081610b4f565b9050919050565b6000602082019050610ccc6000830184610b72565b92915050565b600082825260208201905092915050565b6000610cee82610dd7565b9150610cf983610dd7565b9250827fffffffffffffffffffffffffffffffffffffffffffffffffffffffffffffffff03821115610d2e57610d2d610de1565b5b828201905092915050565b6000610d4482610dd7565b9150610d4f83610dd7565b925082821015610d6257610d61610de1565b5b828203905092915050565b6000610d7882610db7565b9050919050565b60008115159050919050565b60007fffffffff0000000000000000000000000000000000000000000000000000000082169050919050565b600073ffffffffffffffffffffffffffffffffffffffff82169050919050565b6000819050919050565b7f4e487b7100000000000000000000000000000000000000000000000000000000600052601160045260246000fd5b7f476c6f62616c20696e646578206f7574206f6620626f756e6473210000000000600082015250565b7f4572726f723a20546f6b656e20646f6573206e6f742065786973740000000000600082015250565b7f4f776e657220696e646578206f7574206f6620626f756e647321000000000000600082015250565b7f4572726f723a205472616e7366657220746f20746865207a65726f206164647260008201527f6573730000000000000000000000000000000000000000000000000000000000602082015250565b7f536166654d6174683a207375627472616374696f6e206f766572666c6f770000600082015250565b7f4572726f723a20547279696e6720746f207472616e73666572206120746f6b6560008201527f6e206e6f74206f776e6564000000000000000000000000000000000000000000602082015250565b7f4572726f723a204e6f6e2d6578697374696e6720546f6b656e00000000000000600082015250565b7f4572726f723a204e6f6e2d6578697374696e67204f776e657200000000000000600082015250565b610fad81610d6d565b8114610fb857600080fd5b50565b610fc481610d8b565b8114610fcf57600080fd5b50565b610fdb81610dd7565b8114610fe657600080fd5b5056fea26469706673582212202643c85b2a3dffba9e62c71ce31fe5f5d5f3e38d1b17d6336033bd5e46adb90664736f6c63430008040033",
  "linkReferences": {},
  "deployedLinkReferences": {}
}