{
  "_format": "hh-sol-artifact-1",
  "contractName": "ERC721",
  "sourceName": "contracts/ERC721.sol",
  "abi": [
    {
      "inputs": [],
      "stateMutability": "nonpayable",
      "type": "constructor"
    },
    {
      "anonymous": false,
      "inputs": [
        {
          "indexed": true,
          "internalType": "address",
          "name": "_owner",
          "type": "address"
        },
        {
          "indexed": true,
          "internalType": "address",
          "name": "_approved",
          "type": "address"
        },
        {
          "indexed": true,
          "internalType": "uint256",
          "name": "_tokenId",
          "type": "uint256"
        }
      ],
      "name": "Approval",
      "type": "event"
    },
    {
      "anonymous": false,
      "inputs": [
        {
          "indexed": true,
          "internalType": "address",
          "name": "_from",
          "type": "address"
        },
        {
          "indexed": true,
          "internalType": "address",
          "name": "_to",
          "type": "address"
        },
        {
          "indexed": true,
          "internalType": "uint256",
          "name": "_tokenId",
          "type": "uint256"
        }
      ],
      "name": "Transfer",
      "type": "event"
    },
    {
      "inputs": [
        {
          "internalType": "address",
          "name": "_owner",
          "type": "address"
        }
      ],
      "name": "balanceOf",
      "outputs": [
        {
          "internalType": "uint256",
          "name": "",
          "type": "uint256"
        }
      ],
      "stateMutability": "view",
      "type": "function"
    },
    {
      "inputs": [
        {
          "internalType": "uint256",
          "name": "_tokenId",
          "type": "uint256"
        }
      ],
      "name": "ownerOf",
      "outputs": [
        {
          "internalType": "address",
          "name": "",
          "type": "address"
        }
      ],
      "stateMutability": "view",
      "type": "function"
    },
    {
      "inputs": [
        {
          "internalType": "bytes4",
          "name": "interfaceID",
          "type": "bytes4"
        }
      ],
      "name": "supportsInterface",
      "outputs": [
        {
          "internalType": "bool",
          "name": "",
          "type": "bool"
        }
      ],
      "stateMutability": "view",
      "type": "function"
    },
    {
      "inputs": [
        {
          "internalType": "address",
          "name": "_from",
          "type": "address"
        },
        {
          "internalType": "address",
          "name": "_to",
          "type": "address"
        },
        {
          "internalType": "uint256",
          "name": "_tokenId",
          "type": "uint256"
        }
      ],
      "name": "transferFrom",
      "outputs": [],
      "stateMutability": "nonpayable",
      "type": "function"
    }
  ],
  "bytecode": "0x608060405234801561001057600080fd5b506100407f01ffc9a7a5cef8baa21ed3c5c0d7e23accb804b619e9333b597f47a0d84076e26100b860201b60201c565b6100b37f22c82707ba960a14c7592ffb6b8cfaa073fed0048a84cc7fa41f6b5bd8e7f2e47f3a6eb71757dfc6e784c1459d26270140c2c147d95ca985c80026fc5301c3eca17f8a7e378434598edc36d108689a030cbc9d7d465de4f74c71bae1028eed6a881b18186100b860201b60201c565b61020a565b63ffffffff60e01b817bffffffffffffffffffffffffffffffffffffffffffffffffffffffff19161415610121576040517f08c379a0000000000000000000000000000000000000000000000000000000008152600401610118906101b0565b60405180910390fd5b6001600080837bffffffffffffffffffffffffffffffffffffffffffffffffffffffff19167bffffffffffffffffffffffffffffffffffffffffffffffffffffffff1916815260200190815260200160002060006101000a81548160ff02191690831515021790555050565b600061019a6019836101d0565b91506101a5826101e1565b602082019050919050565b600060208201905081810360008301526101c98161018d565b9050919050565b600082825260208201905092915050565b7f496e76616c696420696e74657266616365207265717565737400000000000000600082015250565b610ce2806102196000396000f3fe608060405234801561001057600080fd5b506004361061004c5760003560e01c806301ffc9a71461005157806323b872dd146100815780636352211e1461009d57806370a08231146100cd575b600080fd5b61006b60048036038101906100669190610785565b6100fd565b60405161007891906108f1565b60405180910390f35b61009b60048036038101906100969190610736565b610164565b005b6100b760048036038101906100b291906107ae565b610187565b6040516100c491906108d6565b60405180910390f35b6100e760048036038101906100e2919061070d565b610239565b6040516100f491906109cc565b60405180910390f35b6000806000837bffffffffffffffffffffffffffffffffffffffffffffffffffffffff19167bffffffffffffffffffffffffffffffffffffffffffffffffffffffff1916815260200190815260200160002060009054906101000a900460ff169050919050565b61016e33826102f8565b61017757600080fd5b610182838383610387565b505050565b6000806001600084815260200190815260200160002060009054906101000a900473ffffffffffffffffffffffffffffffffffffffff169050600073ffffffffffffffffffffffffffffffffffffffff168173ffffffffffffffffffffffffffffffffffffffff161415610230576040517f08c379a00000000000000000000000000000000000000000000000000000000081526004016102279061098c565b60405180910390fd5b80915050919050565b60008073ffffffffffffffffffffffffffffffffffffffff168273ffffffffffffffffffffffffffffffffffffffff1614156102aa576040517f08c379a00000000000000000000000000000000000000000000000000000000081526004016102a1906109ac565b60405180910390fd5b6102f1600260008473ffffffffffffffffffffffffffffffffffffffff1673ffffffffffffffffffffffffffffffffffffffff1681526020019081526020016000206105ad565b9050919050565b6000610303826105bb565b610342576040517f08c379a00000000000000000000000000000000000000000000000000000000081526004016103399061090c565b60405180910390fd5b600061034d83610187565b90508073ffffffffffffffffffffffffffffffffffffffff168473ffffffffffffffffffffffffffffffffffffffff161491505092915050565b600073ffffffffffffffffffffffffffffffffffffffff168273ffffffffffffffffffffffffffffffffffffffff1614156103f7576040517f08c379a00000000000000000000000000000000000000000000000000000000081526004016103ee9061092c565b60405180910390fd5b8273ffffffffffffffffffffffffffffffffffffffff1661041782610187565b73ffffffffffffffffffffffffffffffffffffffff161461046d576040517f08c379a00000000000000000000000000000000000000000000000000000000081526004016104649061096c565b60405180910390fd5b6104b4600260008573ffffffffffffffffffffffffffffffffffffffff1673ffffffffffffffffffffffffffffffffffffffff16815260200190815260200160002061062d565b6104fb600260008473ffffffffffffffffffffffffffffffffffffffff1673ffffffffffffffffffffffffffffffffffffffff168152602001908152602001600020610650565b816001600083815260200190815260200160002060006101000a81548173ffffffffffffffffffffffffffffffffffffffff021916908373ffffffffffffffffffffffffffffffffffffffff160217905550808273ffffffffffffffffffffffffffffffffffffffff168473ffffffffffffffffffffffffffffffffffffffff167fddf252ad1be2c89b69c2b068fc378daa952ba7f163c4a11628f55a4df523b3ef60405160405180910390a4505050565b600081600001549050919050565b6000806001600084815260200190815260200160002060009054906101000a900473ffffffffffffffffffffffffffffffffffffffff169050600073ffffffffffffffffffffffffffffffffffffffff168173ffffffffffffffffffffffffffffffffffffffff161415915050919050565b6106456001826000015461066f90919063ffffffff16565b816000018190555050565b600181600001600082825461066591906109f8565b9250508190555050565b6000828211156106b4576040517f08c379a00000000000000000000000000000000000000000000000000000000081526004016106ab9061094c565b60405180910390fd5b600082846106c29190610a4e565b90508091505092915050565b6000813590506106dd81610c67565b92915050565b6000813590506106f281610c7e565b92915050565b60008135905061070781610c95565b92915050565b60006020828403121561071f57600080fd5b600061072d848285016106ce565b91505092915050565b60008060006060848603121561074b57600080fd5b6000610759868287016106ce565b935050602061076a868287016106ce565b925050604061077b868287016106f8565b9150509250925092565b60006020828403121561079757600080fd5b60006107a5848285016106e3565b91505092915050565b6000602082840312156107c057600080fd5b60006107ce848285016106f8565b91505092915050565b6107e081610a82565b82525050565b6107ef81610a94565b82525050565b6000610802601b836109e7565b915061080d82610b25565b602082019050919050565b60006108256023836109e7565b915061083082610b4e565b604082019050919050565b6000610848601e836109e7565b915061085382610b9d565b602082019050919050565b600061086b602b836109e7565b915061087682610bc6565b604082019050919050565b600061088e6019836109e7565b915061089982610c15565b602082019050919050565b60006108b16019836109e7565b91506108bc82610c3e565b602082019050919050565b6108d081610aec565b82525050565b60006020820190506108eb60008301846107d7565b92915050565b600060208201905061090660008301846107e6565b92915050565b60006020820190508181036000830152610925816107f5565b9050919050565b6000602082019050818103600083015261094581610818565b9050919050565b600060208201905081810360008301526109658161083b565b9050919050565b600060208201905081810360008301526109858161085e565b9050919050565b600060208201905081810360008301526109a581610881565b9050919050565b600060208201905081810360008301526109c5816108a4565b9050919050565b60006020820190506109e160008301846108c7565b92915050565b600082825260208201905092915050565b6000610a0382610aec565b9150610a0e83610aec565b9250827fffffffffffffffffffffffffffffffffffffffffffffffffffffffffffffffff03821115610a4357610a42610af6565b5b828201905092915050565b6000610a5982610aec565b9150610a6483610aec565b925082821015610a7757610a76610af6565b5b828203905092915050565b6000610a8d82610acc565b9050919050565b60008115159050919050565b60007fffffffff0000000000000000000000000000000000000000000000000000000082169050919050565b600073ffffffffffffffffffffffffffffffffffffffff82169050919050565b6000819050919050565b7f4e487b7100000000000000000000000000000000000000000000000000000000600052601160045260246000fd5b7f4572726f723a20546f6b656e20646f6573206e6f742065786973740000000000600082015250565b7f4572726f723a205472616e7366657220746f20746865207a65726f206164647260008201527f6573730000000000000000000000000000000000000000000000000000000000602082015250565b7f536166654d6174683a207375627472616374696f6e206f766572666c6f770000600082015250565b7f4572726f723a20547279696e6720746f207472616e73666572206120746f6b6560008201527f6e206e6f74206f776e6564000000000000000000000000000000000000000000602082015250565b7f4572726f723a204e6f6e2d6578697374696e6720546f6b656e00000000000000600082015250565b7f4572726f723a204e6f6e2d6578697374696e67204f776e657200000000000000600082015250565b610c7081610a82565b8114610c7b57600080fd5b50565b610c8781610aa0565b8114610c9257600080fd5b50565b610c9e81610aec565b8114610ca957600080fd5b5056fea26469706673582212201c64d32df384f26393b1bc93aca00b2a2a7dd0a5d1dd5412f80f374c2ed4845a64736f6c63430008040033",
  "linkReferences": {},
  "deployedLinkReferences": {}
}