{
  "_format": "hh-sol-artifact-1",
  "contractName": "ERC165",
  "sourceName": "contracts/ERC165.sol",
  "abi": [
    {
      "inputs": [],
      "stateMutability": "nonpayable",
      "type": "constructor"
    },
    {
      "inputs": [
        {
          "internalType": "bytes4",
          "name": "interfaceID",
          "type": "bytes4"
        }
      ],
      "name": "supportsInterface",
      "outputs": [
        {
          "internalType": "bool",
          "name": "",
          "type": "bool"
        }
      ],
      "stateMutability": "view",
      "type": "function"
    }
  ],
  "bytecode": "0x608060405234801561001057600080fd5b506100407f01ffc9a7a5cef8baa21ed3c5c0d7e23accb804b619e9333b597f47a0d84076e261004560201b60201c565b610197565b63ffffffff60e01b817bffffffffffffffffffffffffffffffffffffffffffffffffffffffff191614156100ae576040517f08c379a00000000000000000000000000000000000000000000000000000000081526004016100a59061013d565b60405180910390fd5b6001600080837bffffffffffffffffffffffffffffffffffffffffffffffffffffffff19167bffffffffffffffffffffffffffffffffffffffffffffffffffffffff1916815260200190815260200160002060006101000a81548160ff02191690831515021790555050565b600061012760198361015d565b91506101328261016e565b602082019050919050565b600060208201905081810360008301526101568161011a565b9050919050565b600082825260208201905092915050565b7f496e76616c696420696e74657266616365207265717565737400000000000000600082015250565b6101b4806101a66000396000f3fe608060405234801561001057600080fd5b506004361061002b5760003560e01c806301ffc9a714610030575b600080fd5b61004a600480360381019061004591906100dc565b610060565b6040516100579190610114565b60405180910390f35b6000806000837bffffffffffffffffffffffffffffffffffffffffffffffffffffffff19167bffffffffffffffffffffffffffffffffffffffffffffffffffffffff1916815260200190815260200160002060009054906101000a900460ff169050919050565b6000813590506100d681610167565b92915050565b6000602082840312156100ee57600080fd5b60006100fc848285016100c7565b91505092915050565b61010e8161012f565b82525050565b60006020820190506101296000830184610105565b92915050565b60008115159050919050565b60007fffffffff0000000000000000000000000000000000000000000000000000000082169050919050565b6101708161013b565b811461017b57600080fd5b5056fea264697066735822122008627ad5a108c88fad52822e50e72b0e4d743589cd246e12da811df1da8378a764736f6c63430008040033",
  "linkReferences": {},
  "deployedLinkReferences": {}
}